:020000040800F2
:1000000000800020D5110008A9110008AB110008DC
:10001000AD110008AF110008B11100080000000088
:10002000000000000000000000000000B311000804
:10003000B511000800000000B7110008B911000850
:1000400025120008251200082512000825120008B4
:1000500025120008251200082512000825120008A4
:100060002512000825120008251200082512000894
:100070002512000825120008251200082512000884
:1000800025120008000000002512000825120008B3
:100090002512000825120008251200082512000864
:1000A0002512000825120008251200082512000854
:1000B0002512000825120008251200082512000844
:1000C0002512000825120008251200082512000834
:1000D0002512000825120008251200082512000824
:1000E0002512000825120008251200082512000814
:1000F0002512000825120008251200080000000043
:100100000000000025120008000000002512000871
:100110002512000800000000251200082512000822
:1001200025120008251200082512000825120008D3
:100130002512000800000000000000002512000841
:100140002512000825120008000000000000000031
:10015000000000000000000000000000000000009F
:100160000000000000000000000000002512000850
:100170002512000800000000000000000000000040
:100180000000000025120008000000000000000030
:10019000000000000000000000000000000000005F
:1001A00000000000000000002512000825120008D1
:1001B0002512000825120008251200080000000082
:1001C00000000000251200080000000000000000F0
:0801D0002512000825120008A9
:1001D80008B5064B1A783AB9054A1AB10548AFF37B
:1001E8000080024B01221A7008BD00BF0C000020DD
:1001F800000000008012000808B5034B1BB103493A
:100208000348AFF3008008BD000000001000002084
:100218008012000810B54C4C00228021204600F0C6
:1002280008FB00224FF40071204600F002FB18E0A2
:10023800464B01229A61212000F01CFB00F02AFBAA
:1002480016E0002402214FF0904000F0EBFA01285C
:10025800F7D1002C73D000F063F9001BB0F57A7F5A
:10026800F0D302214FF0904000F0DCFA0128DFD0F3
:10027800354C01222021204600F0DBFA012000F055
:1002880055F901224021204600F0D3FA012210211D
:10029800204600F0CEFA4FF4FA7000F047F9002239
:1002A8001021204600F0C5FA00222021204600F047
:1002B800C0FA04F5806401224FF48041204600F022
:1002C800B8FA01224FF40041204600F0B2FA0821A2
:1002D8004FF0904000F0A6FA0128F8D01C4C0022FC
:1002E8004FF40041204600F0A4FA00224FF4804168
:1002F800204600F09EFAA4F58064012220212046C1
:1003080000F097FA012000F011F900224021204660
:1003180000F08FFA01221021204600F08AFA4FF4EB
:10032800FA7000F003F900221021204600F081FA4B
:1003380000222021204600F07CFA002482E700F009
:10034800EFF8044687E700BF00040048007000404B
:10035800000800482DE9F04188B003AD002403945B
:1003680004940594069407942A4BDA6C42F004022C
:10037800DA64DA6C02F004020092009ADA6C42F055
:100388000102DA64DA6C02F001020192019ADA6C75
:1003980042F00202DA64DB6C03F002030293029B70
:1003A800DFF8788022464FF44041404600F041FA99
:1003B800194E22464FF43C71304600F03AFA4FF499
:1003C8004043039301270497059406942946404621
:1003D80000F02EF90A2303930494059429464FF05C
:1003E800904000F025F94FF43C730393049705946B
:1003F80006942946304600F01BF94FF480730393A6
:10040800049405942946304600F012F908B0BDE876
:10041800F08100BF001002400004004800080048B6
:1004280072B6FEE730B595B006AD382200212846F1
:1004380000F0F5FE002401940294039404940594BA
:100448004FF4007000F038FA022306934FF48073DB
:10045800099340230A930D94284600F0E7FA68B9F7
:100468000F23019301230293014603900490059002
:1004780001A800F093FD18B915B030BDFFF7D0FF03
:10048800FFF7CEFF08B500F02FF8FFF7CBFFFFF717
:1004980061FFFFF7BFFEFEE7104B1B680BB9012099
:1004A800704710B504460E4A10684FF47A72B2FBD2
:1004B800F3F3B0FBF3F000F0A7F868B90F2C01D9FB
:1004C80001200AE0024621464FF0FF3000F08CF888
:1004D800044B1C60002000E0012010BD000000203B
:1004E800080000200400002010B5032000F06AF87E
:1004F8000F20FFF7D1FF18B101231C46204610BD7D
:10050800044600F09BF9F9E7034A136803490968B0
:100518000B441360704700BF280000200000002033
:10052800014B1868704700BF2800002038B5044602
:10053800FFF7F6FF0546B4F1FF3F02D0044B1B68F6
:100548001C44FFF7EDFF401BA042FAD338BD00BFA3
:1005580000000020002808DB0901C9B200F1604052
:1005680000F5614080F80013704700F00F000901A2
:10057800C9B2014B1954704714ED00E000B500F002
:100588000700A0F1030CBCF1040F07D8C0F1070E57
:100598000430062806D84FF0000C03E04FF0040E94
:1005A8004FF0000C4FF0FF3303FA0EF021EA000180
:1005B80001FA0CF103FA0CF322EA030241EA020001
:1005C80000BD0000074AD36823F4E0631B041B0C3A
:1005D800000200F4E060034343F0BF6343F40033D8
:1005E800D360704700ED00E010B50446054BD868AD
:1005F800C0F30220FFF7C2FF01462046FFF7AAFF1B
:1006080010BD00BF00ED00E00138B0F1807F0BD2D3
:100618004FF0E0235861054AF02182F823100020AA
:10062800986107221A6170470120704700ED00E0C9
:1006380070B582B000236DE085684FEA430E03244D
:1006480004FA0EF425EA0405CC6804FA0EF42C43E7
:100658008460446824EA0C044D68C5F3001C0CFA55
:1006680003FC4CEA0404446068E08C68012C6BD1FC
:1006780078E0DD08083550F8254003F0070C4FEA0C
:100688008C0C4FF00F0E0EFA0CFE24EA0E0E0C69BD
:1006980004FA0CF444EA0E0440F8254068E0052406
:1006A80000E0002404FA0EF42C430CF1020C594D1E
:1006B80045F82C40584CA4686FEA020C24EA02055D
:1006C8004E6816F4801F01D042EA0405524CA5601A
:1006D800E4680CEA04054E6816F4001F01D042EAEB
:1006E80004054D4CE56064680CEA04054E6816F490
:1006F800003F01D042EA0405474C656024680CEAD3
:1007080004054E6816F4803F01D042EA0405424AC7
:10071800156001330A6832FA03F479D04FF0010CFE
:100728000CFA03FC1CEA0202F3D04C6804F0030E36
:100738000EF1FF3EBEF1010F7FF67EAF4C6804F06C
:10074800030CBCF1030F90D0C5685C004FF0030C9C
:100758000CFA04FC25EA0C0E8D6805FA04FC4CEA38
:100768000E04C4604C6804F0030CBCF1020F80D086
:1007780005685C004FF0030C0CFA04FC25EA0C0E2B
:100788004D6805F0030C0CFA04FC4CEA0E040460F6
:100798004C6814F4403FBCD0204C256E45F0010550
:1007A8002566246E04F001040194019C4FEA930C21
:1007B8000CF10205174C54F8255003F0030E4FEACC
:1007C8008E0E0F2404FA0EF425EA0405B0F1904FBA
:1007D8003FF467AF124CA04212D004F58064A042E7
:1007E80010D004F58064A0420ED004F58064A042C5
:1007F8000CD004F58064A0423FF451AF062451E7C1
:1008080001244FE702244DE703244BE7042449E77A
:1008180002B070BD00000140000401400010024019
:10082800000400480369194201D0012070470020E4
:1008380070470AB1816170478162704700B583B023
:100848000B4B1A6E42F001021A661A6E02F0010290
:100858000092009A9A6D42F080529A659B6D03F05F
:1008680080530193019B00F0ADF803B000BD00BFB9
:1008780000100240064AD36800F01F0123EA010372
:1008880043EA5010D060936819439160704700BFE5
:1008980000700040064A136823F0070343F003037F
:1008A8001360044A136943F00403136130BF7047AF
:1008B8000070004000ED00E0002836D13E4B1B6878
:1008C80003F4C063B3F5806F08D03B4AD2F8803098
:1008D80023F48073C2F8803000207047364AD2F87B
:1008E800803023F48073C2F88030136823F4C06327
:1008F80043F400731360314B1B68322202FB03F38D
:100908002F4AA2FB03239B0C013300E0013B2A4A38
:10091800526912F4806F01D0002BF7D1264B5B6926
:1009280013F4806F44D100207047B0F5007F08D0E1
:10093800214A136823F4C06343F4806313600020E2
:1009480070471D4B1B6803F4C063B3F5806F08D074
:10095800194AD2F8803043F48073C2F880300020FE
:100968007047154AD2F8803043F48073C2F880305B
:10097800136823F4C06343F4007313600F4B1B68C0
:10098800322202FB03F30E4AA2FB03239B0C013322
:1009980000E0013B084A526912F4806F01D0002B35
:1009A800F7D1054B5B6913F4806F03D100207047C2
:1009B80003207047032070470070004008000020A3
:1009C80083DE1B43024A936843F480439360704775
:1009D80000700040124BDA6802F00302DB68C3F3D0
:1009E80003130133032A11D00E48B0FBF3F00C4B6C
:1009F800DB68C3F3062303FB00F0094BDB68C3F392
:100A0800416301335B00B0FBF3F070470648B0FB6D
:100A1800F3F0034BDB68C3F3062303FB00F0ECE7BA
:100A2800001002400024F40000127A00002800F0B0
:100A3800518270B582B00446036813F0010F37D0B5
:100A4800A54A936803F00C03D26802F003020C2B4A
:100A580023D0082B23D06368B3F5803F4ED0B3F57D
:100A6800A02F51D09C4B1A6822F480321A601A6861
:100A780022F480221A606368002B52D0FFF750FDE1
:100A88000546954B1B6813F4003F11D1FFF748FD4D
:100A9800401B6428F5D9032025E2032AD9D18E4BBF
:100AA8001B6813F4003F03D06368002B00F0148226
:100AB800236813F0020F5DD0874A936803F00C0394
:100AC800D26802F003020C2B3AD0042B3AD0E36828
:100AD800002B75D0804A136843F480731360FFF7C6
:100AE8001FFD05467C4B1B6813F4806F5FD1FFF731
:100AF80017FD401B0228F5D90320F4E1764A136854
:100B080043F480331360B6E703F18043A3F53C3325
:100B18001A6842F480221A601A6842F480321A6015
:100B2800A9E7FFF7FDFC05466B4B1B6813F4003F74
:100B3800BED0FFF7F5FC401B6428F5D90320D2E1AD
:100B4800022AC2D1644B1B6813F4806F03D0E36898
:100B5800002B00F0C381604A536823F0FE432169EB
:100B680043EA016353605D4B1868FFF795FC002862
:100B780040F0B681236813F0080F4CD063699BB32B
:100B8800554AD2F8943043F00103C2F89430FFF785
:100B9800C7FC0546504BD3F8943013F0020F3AD1F6
:100BA800FFF7BEFC401B0228F4D903209BE14A4A08
:100BB800536823F0FE43216943EA01635360D9E790
:100BC800454A136823F480731360FFF7A9FC0546B0
:100BD800414B1B6813F4806FCCD0FFF7A1FC401B7E
:100BE8000228F5D903207EE13B4AD2F8943023F05D
:100BF8000103C2F89430FFF793FC0546364BD3F84F
:100C0800943013F0020F06D0FFF78AFC401B02282D
:100C1800F4D9032067E1236813F0040F00F0838000
:100C28002D4B9B6D13F0805F37D12B4B9A6D42F0A3
:100C380080529A659B6D03F080530193019B0123B9
:100C48001E46274B1B6813F4807F29D0A368012B0D
:100C58003AD0052B46D0204BD3F8902022F0010241
:100C6800C3F89020D3F8902022F00402C3F8902013
:100C7800A368002B44D0FFF753FC0546164BD3F866
:100C8800903013F0020F4DD1FFF74AFC401B41F2A0
:100C980088339842F2D9032025E100231E46D0E785
:100CA8000F4A136843F480731360FFF739FC054655
:100CB8000B4B1B6813F4807FC8D1FFF731FC401B36
:100CC8000228F5D903200EE1034AD2F8903043F008
:100CD8000103C2F89030CBE7001002400400002066
:100CE80000700040884BD3F8902042F00402C3F80B
:100CF8009020D3F8902042F00102C3F89020B7E783
:100D0800FFF70EFC0546804BD3F8903013F0020F26
:100D180008D0FFF705FC401B41F288339842F2D90E
:100D28000320E0E0E6B9236813F0200F35D0A3696B
:100D3800E3B1754AD2F8983043F00103C2F898300D
:100D4800FFF7EEFB0546704BD3F8983013F0020F0F
:100D580023D1FFF7E5FB401B0228F4D90320C2E0AA
:100D6800694A936D23F080539365DCE7664AD2F8AD
:100D7800983023F00103C2F89830FFF7D1FB0546FD
:100D8800614BD3F8983013F0020F06D0FFF7C8FB79
:100D9800401B0228F4D90320A5E0E369002B00F0EA
:100DA800A180594A926802F00C020C2A64D0022BE6
:100DB80013D0554A136823F080731360FFF7B0FB14
:100DC8000446514B1B6813F0007F4ED0FFF7A8FB79
:100DD800001B0228F5D9032085E04B4A136823F04D
:100DE80080731360FFF79CFB0546474B1B6813F0A5
:100DF800007F06D0FFF794FB401B0228F5D903209B
:100E080071E0414AD36841491940236A606A013850
:100E180043EA0013A06A43EA0023206B4008013824
:100E280043EA4053606B4008013843EA4063E06A94
:100E380043EAC0631943D160136843F080731360B9
:100E4800D36843F08073D360FFF76AFB04462E4BE8
:100E58001B6813F0007F06D1FFF762FB001B022816
:100E6800F5D903203FE000203DE0274AD168284B10
:100E78000B40D360002036E0012B36D0224BDB68D4
:100E880003F00301226A914231D103F0F002616A52
:100E98000139B2EB011F2CD103F4FE42A16AB2EB77
:100EA800012F28D103F07842E16AB2EBC16F24D157
:100EB80003F4C001226B5208013AB1EB425F1ED124
:100EC80003F0C063626B5208013AB3EB426F18D16A
:100ED800002008E001207047012004E0012002E022
:100EE800012000E0184602B070BD0120FBE7012098
:100EF800F9E70120F7E70120F5E70120F3E70120F2
:100F0800F1E70120EFE700BF001002400C809F01CD
:100F1800FCFFEEFE1E4B9B6803F00C03042B33D042
:100F28001B4B9B6803F00C03082B2FD0184B9B68B6
:100F380003F00C030C2B01D000207047144BDA6827
:100F480002F00302DB68C3F303130133032A11D051
:100F58001048B0FBF3F00E4BDB68C3F3062303FB2A
:100F680000F00B4BDB68C3F3416301335B00B0FB5C
:100F7800F3F070470848B0FBF3F0054BDB68C3F3A8
:100F8800062303FB00F0ECE702487047024870476D
:100F9800001002400024F40000127A00002800F03B
:100FA800ED80F8B50C460546774B1B6803F00F0338
:100FB8008B420BD2744A136823F00F030B43136060
:100FC800136803F00F038B4240F0DA802B6813F0AC
:100FD80001031F4665D06B68032B30D0022B50D01D
:100FE8006A4B1B6813F4806F00F0CC80FFF792FF08
:100FF800674B984252D9654A936823F0F00343F04F
:101008008003936080231F46604A936823F003039C
:1010180069680B439360FFF783FA06465B4B9B684E
:1010280003F00C036A68B3EB820F3AD0FFF778FA43
:10103800801B41F288339842F0D903207DE0534B5E
:101048001B6813F0007F01D1012076E0FFF7C2FC96
:101058004F4B98421CD94D4B9B6813F0F00F06D0AC
:101068002B6813F002031F46CED0AB689BB9474AE2
:10107800936823F0F00343F08003936080231F46B6
:10108800C2E7424B1B6813F4003FAFD1012054E084
:1010980000231F46B8E700231F46B5E700231F4675
:1010A800B2E72B6813F0020F48D013F0040F04D0F6
:1010B800364A936843F4E06393602B6813F0080F93
:1010C80006D0324A936823F47C5343F4E063936078
:1010D8002E4A936823F0F003A9680B4393602A4BC8
:1010E8001B6803F00F03A34230D82B6813F0040FDA
:1010F80006D0264A936823F4E063E9680B439360BB
:101108002B6813F0080F07D0204A936823F4605324
:10111800296943EAC1039360FFF7FCFE1B4B9B68F8
:10112800C3F303131B4AD35C03F01F03D8401A4BC5
:1011380018601A4B1868FFF7AFF9F8BD802FCED1A9
:10114800124A936823F0F0039360C8E70E4A1368C5
:1011580023F00F0323431360FFF7E2F906460A4B17
:101168001B6803F00F03A342BFD0FFF7D9F9801B18
:1011780041F288339842F2D90320DEE70120704714
:101188000120DAE70120D8E70020024000100240E1
:1011980000B4C404981200080800002004000020CD
:1011A800FEE7FEE7FEE7FEE7FEE770477047704799
:1011B80008B5FFF7A9F908BD034AD2F8883043F407
:1011C8007003C2F88830704700ED00E00D4885468E
:1011D800FFF7F2FF0C480D490D4A002302E0D458EE
:1011E800C4500433C4188C42F9D30A4A0A4C002369
:1011F80001E013600432A242FBD300F019F8FFF7B4
:1012080041F9FEE700800020000000200C000020CB
:10121800B01200080C0000202C000020FEE7024459
:101228000346934200D1704703F8011BF9E7000019
:1012380070B50D4B0D4C00261D1BB6EBA50F09D143
:1012480000F01AF80A4C0B4B00261D1BB6EBA50F35
:1012580005D170BD54F8043B98470136EDE754F8C2
:10126800043B98470136F1E7A8120008A8120008C5
:10127800A8120008AC120008F8B500BFF8BC08BCFA
:101288009E467047F8B500BFF8BC08BC9E4670473C
:10129800000000000000000001020304060708091E
:0412A8000102000837
:0412AC00D90100085C
:0C12B00001000000100000000024F40009
:04000005080011D509
:00000001FF
